:0C10000000008831032820008F31FD2FF4
:101A6400FC3021009900903027009B0021001A1FB0
:101A74003C2D3D2D382D0800F300F201731C432D3D
:101A8400442D482D7008F1007108F2070310F00D81
:101A94000310F30C7308031D502D512D402D7208B3
:101AA4000800F1000830F0007008F20022000E1463
:101AB400F11B5D2D5E2D5F2D0E10000022000E1017
:101AC4000310F10D0130F2027208031D6A2D6B2D13
:101AD400582D080057302100950022008C010F304A
:101AE40021008C0023008C01083024008C0022008B
:101AF4008D01F03021008D0023008D01F030240091
:101B04008D0022008E010E3021008E0023008E01F4
:101B14000800F401F501701C902D912D952D72088B
:101B2400F4077308F53D0130F235F30D890B962D5A
:101B34000130F136F00C890B9B2D70087104031DE4
:101B4400A42DA52D8D2D7508F1007408F000080052
:101B5400F7000130F702770A031DB12DB22DB32D22
:101B6400D32D77087407F6007608860087010108EC
:101B74008D3153258D3177087307F600760886007A
:101B8400870101088D3153258D3177087507F600DB
:101B9400760886000130870001088D3153258D3188
:101BA400AB2D08008D3132258D318D316C258D3171
:101BB40001302000E3000030E40036302000B100A2
:101BC4003108F300A030B2003208F4002030B30032
:101BD4003308F5002D308D31AA258D313F3020009A
:101BE400B1005530890BF42DB10BF42D2000E50123
:101BF4006508A03EB1003108F9006508203EB20036
:101C04003208FA0065356307B3003308FB00FF3080
:101C1400B4003408FC00FF30B5003508FD00650849
:101C2400363E8E318C268D3101302000B1003108D2
:101C3400E5072D306502031C202E212EFA2D0230DB
:101C4400E3070030E43D8C19282E292EDF2D0100F6
:101C5400DF2D88310328F601F11F312E322E392E63
:101C6400F009F109F00A0319F10AF601F60AF31F63
:101C74003C2E3D2E462EF209F309F20A0319F30A0B
:101C84000130F4007408F606F701F80170087104D5
:101C940003194D2E4E2E7D2EF501F50A5A2E0130D4
:101CA400F035F10D890B522E0130F4007408F5075C
:101CB400F11F5D2E5E2E512E0130F735F80D890B84
:101CC4005F2E71087302031D692E70087202031CD3
:101CD4006C2E6D2E722E7008F2027108F33B77148D
:101CE4000130F136F00C890B732E0130F502031D1F
:101CF4007C2E7D2E5E2E76080319812E822E872E51
:101D0400F709F809F70A0319F80A7808F1007708BF
:101D1400F00008002000B0007C08031D922E932ED2
:101D2400A42E7908860087017A0884000130850092
:101D34007D08803FC03FA00030088600870120084E
:101D44008100FC2F2B30F0000030F1007B08A00054
:101D5400A1012008F2002108F3008E312D268E31D6
:101D640070082000A2002208AB00D530A000200893
:101D7400F0002B088D313E258E317B072000A10019
:101D84002108A8000630A0002008F00028088D31A2
:101D94003E258E312000A1002108AC007D08A00062
:101DA400A1012008F0002108F1007C09A200A30190
:101DB4002208F2002308F3008D318B258E3171083F
:101DC4002000A4002408AF007C08A000A101200882
:101DD400F0002108F1002C08A200A3012208F2005F
:101DE4002308F3008D318B258E3170082000A40068
:101DF4007108A5000830A600250DA50CA40CA60B9F
:101E0400FE2EFF30A70024082702A9002509031885
:101E1400890AAA007D08A000A1012008F000210879
:101E2400F1002A08F3002908F2008D318B258E3148
:101E340071082000A2002208AD007C08A000A101C6
:101E44002008F0002108F1002C09A200A3012208B7
:101E5400F2002308F3008D318B258E3170082000A9
:101E6400A4007108A5000830A600250DA50CA40C3B
:101E7400A60B372FFF30A70024082702A900250945
:101E84000318890AAA007D08A000A1012008F00017
:101E94002108F1002A08F3002908F2008D318B256E
:101EA4008E3171082000A2002208AE00E32F7D08C5
:101EB400A000300886008701200881002E08A000B9
:101EC400790886008701200881002F08A0007A087D
:101ED40086000130870020088100FC2F2D08A00017
:101EE400300886008701200881007D08A000790859
:101EF40086008701200881002F08A0007A08860048
:101F04000130870020088100FC2F2F08A000300832
:101F140086008701200881007D08A00079088600DA
:101F24008701200881002E08A0007A08860001306D
:101F3400870020088100FC2F2F08A00030088600AD
:101F44008701200881002D08A000790886008701F8
:101F5400200881007D08A0007A08860001308700EF
:101F640020088100FC2F2E08A0003008860087017D
:101F7400200881002F08A000790886008701200826
:101F840081007D08A0007A088600013087002008BF
:101F94008100FC2F7D08A0003008860087012008FE
:101FA40081002F08A000790886008701200881009D
:101FB4002D08A0007A0886000130870020088100DF
:101FC400FC2F2B08A000A1012108003A0319EB2FD4
:101FD400CC2F2008003A0319592F013A0319702F06
:101FE400033A0319872F013A03199E2F073A03195D
:0C1FF400B52FCC2F080020008D31D42D1B
:00000001FF
