:0C10000000008831032820008F31D52F1C
:10195400640080010131890BAB2C00340134003464
:101964000034003402340034FC30210099009030FB
:1019740027009B0021001A1FC02CC12CBC2C08007E
:10198400F300F201731CC72CC82CCC2C7008F10096
:101994007108F2070310F00D0310F30C7308031D14
:1019A400D42CD52CC42C72080800F1000830F000A7
:1019B4007008F20022000E14F11BE12CE22CE32C3F
:1019C4000E10000022000E100310F10D0130F2027F
:1019D4007208031DEE2CEF2CDC2C0800573021007C
:1019E400950022008C010F3021008C0023008C0113
:1019F400083024008C0022008D01F03021008D007D
:101A040023008D01F03024008D0022008E010E3061
:101A140021008E0023008E010800F401F501701CE2
:101A2400142D152D192D7208F4077308F53D013096
:101A3400F235F30D890B1A2D0130F136F00C890BB8
:101A44001F2D70087104031D282D292D112D7508D3
:101A5400F1007408F0000800F700F801542D78082C
:101A64007407F60076088600870101088C31D724B4
:101A74008D3178087307F60076088600870101081F
:101A84008C31D7248D3178087507F60076088600E6
:101A94000130870001088C31D7248D310130F600E4
:101AA4007608F80778087706031D592D5A2D312D2D
:101AB4000800F601F11F5F2D602D672DF009F10973
:101AC400F00A0319F10AF601F60AF31F6A2D6B2DC9
:101AD400742DF209F309F20A0319F30A0130F40030
:101AE4007408F606F701F8017008710403197B2DD8
:101AF4007C2DAB2DF501F50A882D0130F035F10D63
:101B0400890B802D0130F4007408F507F11F8B2D2B
:101B14008C2D7F2D0130F735F80D890B8D2D710833
:101B24007302031D972D70087202031C9A2D9B2DBE
:101B3400A02D7008F2027108F33B77140130F136DE
:101B4400F00C890BA12D0130F502031DAA2DAB2D3C
:101B54008C2D76080319AF2DB02DB52DF709F80992
:101B6400F70A0319F80A7808F1007708F00008006A
:101B74008C31B6248D318C31F0248D31233020000A
:101B8400E1006108F300A030E2006208F4002030B4
:101B9400E3006308F5002D308D312E258D312000B2
:101BA40020082104031DD72DD82DFA2D0D1ADB2D65
:101BB400DC2DEA2D083022060319E12DE22DEA2D51
:101BC4000130E1006108A2071430A0000030A10038
:101BD4008D1AED2DEE2DFE2D22080319F22DF32D75
:101BE400FE2D0130A2021430A0000030A100FE2D11
:101BF400FF30A007FF30A13D3F302000E100553009
:101C0400890B022EE10B022E2000E7016708A03E9B
:101C1400E1006108F9006708203EE2006208FA006A
:101C24006708E3000130E335890B152E6835630737
:101C3400013EE4006408FB00FF30E5006508FC0099
:101C4400FF30E6006608FD006708233E8E316426F7
:101C54008D3120006708233E86008701220A342E36
:101C64000310810CFF3E031D322E6708A03E860040
:101C74008701220A3F2E0310810CFF3E031D3D2ED7
:101C84006708203E860001308700220A4B2E03108D
:101C9400810CFF3E031D492E0130E1006108E70776
:101CA4002D306702031C572E582E082E0130E807EA
:101CB4000030E93D8C195F2E602EC02D0100C02D2F
:101CC400883103282000E0007C08031D6A2E6B2E57
:101CD4007C2E7908860087017A088400013085000B
:101CE4007D08803FC03FD00060088600870150080F
:101CF4008100D42F2B30F0000030F1007B08D0009D
:101D0400D1015008F2005108F3008D315B258E316A
:101D140070082000D2005208DB00D530D0005008F3
:101D2400F0005B088C31C2248E317B072000D10087
:101D34005108D8000630D0005008F00058088C3103
:101D4400C2248E312000D1005108DC007D08D0006F
:101D5400D1015008F0005108F1007C09D200D301F0
:101D64005208F2005308F3008D310F258E317108AB
:101D74002000D4005408DF007C08D000D1015008B2
:101D8400F0005108F1005C08D200D3015208F200BF
:101D94005308F3008D310F258E3170082000D400D4
:101DA4007108D5000830D600550DD50CD40CD60BCF
:101DB400D62EFF30D70054085702D900550903180E
:101DC400890ADA007D08D000D1015008F0005108DA
:101DD400F1005A08F3005908F2008D310F258E31B5
:101DE40071082000D2005208DD007C08D000D10127
:101DF4005008F0005108F1005C09D200D3015208E8
:101E0400F2005308F3008D310F258E317008200045
:101E1400D4007108D5000830D600550DD50CD40C6B
:101E2400D60B0F2FFF30D70054085702D90055099D
:101E34000318890ADA007D08D000D1015008F000A7
:101E44005108F1005A08F3005908F2008D310F25AA
:101E54008E3171082000D2005208DE00BB2F7D08AD
:101E6400D000600886008701500881005E08D00019
:101E7400790886008701500881005F08D0007A083D
:101E840086000130870050088100D42F5D08D000FF
:101E9400600886008701500881007D08D000790819
:101EA40086008701500881005F08D0007A08860008
:101EB4000130870050088100D42F5F08D0006008EB
:101EC40086008701500881007D08D00079088600CB
:101ED4008701500881005E08D0007A08860001302E
:101EE400870050088100D42F5F08D0006008860066
:101EF4008701500881005D08D000790886008701B9
:101F0400500881007D08D0007A08860001308700DF
:101F140050088100D42F5E08D00060088600870135
:101F2400500881005F08D0007908860087015008B6
:101F340081007D08D0007A088600013087005008AF
:101F44008100D42F7D08D0006008860087015008E6
:101F540081005F08D000790886008701500881005D
:101F64005D08D0007A08860001308700500881009F
:101F7400D42F5B08D000D1015108003A0319C32FB4
:101F8400A42F5008003A0319312F013A0319482F9E
:101F9400033A03195F2F013A0319762F073A0319FD
:101FA4008D2FA42F0800B03084008C3085001200DF
:101FB400E8001200E9001200EA001200EB0012002F
:101FC400EC001200ED002030840000308500303039
:101FD4008C31AA248F31A0308400003085002D304C
:101FE4008C31AA248F3120308400013085002D30BB
:0C1FF4008C31AA248F3120008D31BA2DD1
:00000001FF
